:100000000C9434000C9451000C9451000C94510049
:100010000C9451000C9451000C9451000C9451001C
:100020000C9451000C9451000C9451000C9451000C
:100030000C9451000C9451000C9440040C94510009
:100040000C9451000C9451000C94F8060C9451003F
:100050000C949D060C9451000C9451000C9451008A
:100060000C9451000C94510011241FBECFEFD8E026
:10007000DEBFCDBF11E0A0E0B1E0E2E2FEE102C0F0
:1000800005900D92A431B107D9F711E0A4E1B1E0D8
:1000900001C01D92AE3EB107E1F70E94E4020C944C
:1000A0000F0F0C940000DF93CF93CDB7DEB7F89419
:1000B000CF91DF910895DF93CF93CDB7DEB77894DA
:1000C000CF91DF910895DF93CF9300D000D0CDB7CB
:1000D000DEB79C838B8384E090E00E94D30D9A83EB
:1000E000898389819A812B813C81FC013183208322
:1000F00089819A810F900F900F900F90CF91DF918F
:100100000895DF93CF9300D0CDB7DEB79A8389836C
:10011000000089819A81FC01808191810097C9F357
:1001200089819A81FC01808191819C01215030401C
:1001300089819A81FC01318320830F900F90CF91A8
:10014000DF910895DF93CF9300D0CDB7DEB79A83C8
:10015000898389819A81FC01808191819C012F5F33
:100160003F4F89819A81FC01318320830F900F904A
:10017000CF91DF910895DF93CF9300D000D0CDB71A
:10018000DEB79A8389837C836B8389819A8190937C
:10019000010180930001109203011092020110925C
:1001A0001501109214011092170110921601898105
:1001B0009A81909301018093000180E291E00F9079
:1001C0000F900F900F90CF91DF910895DF93CF9311
:1001D00000D000D000D0CDB7DEB79C838B837E8368
:1001E0006D83000020910201309103018091000194
:1001F0009091010128173907A9F30E9453008091BB
:10020000140190911501009731F0809102019091B5
:100210000301009721F58B819C81909315018093B8
:1002200014018B819C81909317018093160180911A
:10023000140190911501FC01138212828091160124
:1002400090911701FC011382128280911401909108
:1002500015012D813E81FC01318320831EC084E085
:1002600090E00E94D30D9A8389838091160190912A
:10027000170129813A81FC013383228389819A8184
:1002800090931701809316018091160190911701A8
:100290002D813E81FC013183208380910201909168
:1002A0000301019690930301809302010E945B0079
:1002B00026960FB6F894DEBF0FBECDBFCF91DF916B
:1002C0000895DF93CF9300D000D0CDB7DEB79C83E5
:1002D0008B831A8219828091020190910301009709
:1002E00031F08091140190911501009719F480E08C
:1002F00090E039C00E945300809114019091150143
:10030000FC01808191819A8389838091020190917F
:1003100003018130910579F48091140190911501C8
:100320000E946D0E10921501109214011092170187
:10033000109216010BC08091140190911501FC01DF
:100340008281938190931501809314018091020121
:1003500090910301019790930301809302010E9401
:100360005B0089819A810F900F900F900F90CF9131
:10037000DF910895DF93CF9300D000D0CDB7DEB7E3
:100380009C838B8315C080911401909115019A83F1
:1003900089838091140190911501FC0182819381E0
:1003A000909315018093140189819A810E946D0EAA
:1003B0008091140190911501009729F70F900F90EB
:1003C0000F900F90CF91DF910895DF93CF9300D0DE
:1003D000CDB7DEB79A838983809128019091290156
:1003E0000E94810016C00E945300809118019091D4
:1003F00019010196909319018093180180911A01B7
:1004000090911B01019690931B0180931A010E9409
:100410005B0080911A0190911B018A3091051CF3B9
:1004200080911A0190911B018A3091057CF0109205
:100430001B0110921A018091A8019091A9012091AD
:10044000180130911901B9010E94E600809128013C
:10045000909129010E94A200BFCFDF93CF9300D0DB
:10046000CDB7DEB79A8389838091280190912901C5
:100470000E948100000080911A0190911B018A3036
:100480009105C9F30E9453008091180190911901C0
:100490000196909319018093180180911A0190910F
:1004A0001B01019690931B0180931A010E945B002F
:1004B00080912801909129010E94A200D5CFDF935D
:1004C000CF93CDB7DEB760970FB6F894DEBF0FBEFF
:1004D000CDBF988B8F871C821B82809128019091C1
:1004E00029010E9481008091A8019091A9010E9498
:1004F00061019A8389831C821B8221C089819A8130
:100500002AE030E0B9010E94750D482F405D9E0140
:100510002B5F3F4F8B819C81820F931FFC01408397
:100520008B819C8101969C838B8389819A812AE0AF
:1005300030E0B9010E94750D9B013A8329838981BE
:100540009A810097D9F69E012B5F3F4F8B819C814A
:10055000820F931FFC011082CE0105960E94AA070C
:1005600080912801909129010E94A200B6CFDF93CB
:10057000CF93CDB7DEB70E94650684E690E062E0D7
:1005800070E00E94BB009093A9018093A80181E0D4
:1005900090E00E946300909329018093280180914C
:1005A0000001909101010E946300909325018093C6
:1005B000240180E090E00E946300909327018093E3
:1005C0002601CF91DF910895DF93CF93CDB7DEB7AA
:1005D0000E944C040E94B70285EE91E060E070E05A
:1005E00040E050E00E947A058DE292E061E070E028
:1005F00040E050E00E947A058FE592E062E070E012
:1006000040E050E00E947A050E941E0680E090E0E3
:10061000CF91DF910895DF93CF93CDB7DEB7F894F4
:10062000CF91DF910895DF93CF93CDB7DEB7789464
:10063000CF91DF910895DF93CF93CDB7DEB780914F
:10064000040190910501019620911C0130911D013A
:10065000B9010E94750DCF91DF9108950E940B039F
:100660000F920FB6F8940F921F9211242F923F927F
:100670004F925F926F927F928F929F92AF92BF92B2
:10068000CF92DF92EF92FF920F931F932F933F939E
:100690004F935F936F937F938F939F93AF93BF938A
:1006A000CF93DF93EF93FF93ADB7BEB7B0932B011A
:1006B000A0932A0178940E941B039A8389838981DD
:1006C0009A81909305018093040129813A81C9019F
:1006D000880F991F820F931F880F991F880F991FEA
:1006E000825D9E4FFC01808191818130910509F0EE
:1006F00049C00E94130380912A0190912B01A0917F
:100700002C01B0912D0149815A819A01220F331F8A
:10071000240F351F220F331F220F331F2A5C3E4F39
:10072000F90180839183A283B38380912A01909100
:100730002B01A0912C01B0912D018DBF9EBFFF9187
:10074000EF91DF91CF91BF91AF919F918F917F9169
:100750006F915F914F913F912F911F910F91FF905A
:10076000EF90DF90CF90BF90AF909F908F907F9051
:100770006F905F904F903F902F901F900F900FBE03
:100780000F9052C029813A81C901880F991F820FA9
:10079000931F880F991F880F991F825D9E4F21E03C
:1007A00030E0FC013183208380912A0190912B015C
:1007B000A0912C01B0912D0180509140A040B040FB
:1007C00080932A0190932B01A0932C01B0932D01CB
:1007D000F894A0912A01B0912B01ADBFBEBF7894CF
:1007E0000E94130329813A81C901880F991F820F42
:1007F000931F880F991F880F991F8E5C9E4FFC01D5
:100800004081518129813A81C901880F991F820F46
:10081000931F880F991F880F991F8C5C9E4FFC01B6
:1008200080819181FA0109950895DF93CF93CDB727
:10083000DEB786E490E0FC01108287E490E02BE9CB
:10084000FC01208384E490E022E4FC0120838EE616
:1008500090E02EE630E0F90120812260FC01208347
:10086000CF91DF910895DF93CF93CDB7DEB785E4C5
:1008700090E025E0FC0120837894CF91DF910895EA
:1008800080911E0190911F01019690931F0180930A
:100890001E010E942E031895DF93CF93CDB7DEB7CC
:1008A00010921F0110921E010E9415040E94330431
:1008B000CF91DF9108950F931F93DF93CF93CDB71F
:1008C000DEB76C970FB6F894DEBF0FBECDBF85E2E2
:1008D00090E025E230E0F90120812860FC012083CE
:1008E00080E090E0AAE7B4E489839A83AB83BC8379
:1008F00069817A818B819C8120E030E04AE755E470
:100900000E94090ADC01CB018D839E83AF83B887E7
:1009100011E06D817E818F81988520E030E040E894
:100920005FE30E94630B88230CF010E0112329F091
:1009300081E090E09A87898746C011E06D817E81D1
:100940008F81988520E03FEF4FE757E40E94030B2B
:1009500018160CF010E0112361F169817A818B8106
:100960009C8120E030E040E251E40E94090ADC0171
:10097000CB01BC01CD010E943508DC01CB019A8777
:10098000898712C080E991E09C878B878B859C8545
:100990008C01C8010197F1F78C011C870B878985B1
:1009A0009A8501979A87898789859A85009751F753
:1009B00017C06D817E818F8198850E943508DC018A
:1009C000CB019A87898789859A859E878D878D85B2
:1009D0009E858C01F8013197F1F78F011E870D87F5
:1009E00085E290E025E230E0F9012081277FFC01DB
:1009F000208380E090E0AAE7B4E48F87988BA98BEE
:100A0000BA8B6F85788989899A8920E030E04AE736
:100A100055E40E94090ADC01CB018B8B9C8BAD8BCA
:100A2000BE8B11E06B897C898D899E8920E030E046
:100A300040E85FE30E94630B88230CF010E0112371
:100A400029F081E090E0988F8F8B46C011E06B8990
:100A50007C898D899E8920E03FEF4FE757E40E9413
:100A6000030B18160CF010E0112361F16F857889E3
:100A700089899A8920E030E040E251E40E94090A25
:100A8000DC01CB01BC01CD010E943508DC01CB01AA
:100A9000988F8F8B12C080E991E09A8F898F898D12
:100AA0009A8D8C01C8010197F1F78C011A8F098F7B
:100AB0008F89988D0197988F8F8B8F89988D00974C
:100AC00051F705CF6B897C898D899E890E943508F5
:100AD000DC01CB01988F8F8B8F89988D9C8F8B8FAA
:100AE0008B8D9C8D8C01F8013197F1F78F011C8F54
:100AF0000B8FEDCEDF93CF9300D000D000D0CDB7D9
:100B0000DEB79A8389837C836B835E834D83809178
:100B10001C0190911D01843091051CF08FEF9FEF17
:100B200084C080911C0190911D01019690931D013C
:100B300080931C0180911C0190911D019C0121500A
:100B40003040C901880F991F820F931F880F991F8A
:100B5000880F991F8C5C9E4F2D813E81FC01318353
:100B6000208380911C0190911D019C0121503040F7
:100B7000C901880F991F820F931F880F991F880F33
:100B8000991F8E5C9E4F29813A81FC01318320831D
:100B900080911C0190911D019C0121503040C901A0
:100BA000880F991F820F931F880F991F880F991F15
:100BB000805D9E4F2B813C81FC013183208380919D
:100BC0001C0190911D019C0121503040C901880FEA
:100BD000991F820F931F880F991F880F991F825D9D
:100BE0009E4FFC011182108280911C0190911D0189
:100BF000AC014150504080912A0190912B01A0916D
:100C00002C01B0912D019A01220F331F240F351FA3
:100C1000220F331F220F331F2A5C3E4FF9018083BE
:100C20009183A283B38380E090E026960FB6F89478
:100C3000DEBF0FBECDBFCF91DF910895DF93CF937D
:100C4000CDB7DEB70E941B0390930501809304018A
:100C50002091040130910501C901880F991F820F6D
:100C6000931F880F991F880F991F825D9E4F21E067
:100C700030E0FC0131832083209104013091050193
:100C8000C901880F991F820F931F880F991F880F22
:100C9000991F8E5C9E4FFC0140815181209104017F
:100CA00030910501C901880F991F820F931F880F8A
:100CB000991F880F991F8C5C9E4FFC018081918148
:100CC000FA010995CF91DF910895DF93CF93CDB7C6
:100CD000DEB7F8941092A5011092A4011092E901D8
:100CE0001092E8011092A7011092A6011092A101A2
:100CF0001092A0011092A3011092A20110929F01E4
:100D000010929E0184EC90E027E6FC01208385ECA4
:100D100090E0FC01108282EC90E026E0FC01208350
:100D200081EC90E028E9FC01208380EC90E0FC015C
:100D300010827894CF91DF9108951F920F920FB691
:100D40000F9211242F933F935F936F937F938F9311
:100D50009F93AF93BF93EF93FF93DF93CF93CDB761
:100D6000DEB7F8948091A4019091A501009751F409
:100D700081EC90E021EC30E0F90120812F7BFC0137
:100D8000208323C086EC90E02091A6013091A7013A
:100D900028553E4FF9012081FC0120838091A60156
:100DA0009091A701019620E430E0B9010E94750DF1
:100DB0009093A7018093A6018091A4019091A50131
:100DC00001979093A5018093A4017894CF91DF912E
:100DD000FF91EF91BF91AF919F918F917F916F9113
:100DE0005F913F912F910F900FBE0F901F9018951C
:100DF0001F920F920FB60F9211242F933F935F9380
:100E00006F937F938F939F93AF93BF93EF93FF93D2
:100E1000DF93CF930F92CDB7DEB7F89486EC90E0D6
:100E2000FC018081898380919E0190919F0180388F
:100E3000910504F58091A0019091A101825A9E4FE5
:100E40002981FC0120838091A0019091A10101964C
:100E500020E830E0B9010E94750D9093A1018093C4
:100E6000A00180919E0190919F01019690939F0116
:100E700080939E0178940F90CF91DF91FF91EF9135
:100E8000BF91AF919F918F917F916F915F913F91B2
:100E90002F910F900FBE0F901F901895DF93CF9357
:100EA00000D000D000D0CDB7DEB79C838B837E838B
:100EB0006D83F8941A82198223C089819A812B81CB
:100EC0003C81820F931F2091A2013091A301225AED
:100ED0003E4FF9012081FC0120838091A201909175
:100EE000A301019620E830E0B9010E94750D9093AE
:100EF000A3018093A20189819A8101969A838983B3
:100F000080919E0190919F0129813A81281739078C
:100F1000A4F28091A2019091A3012B813C81820FC8
:100F2000931FFC01108220919E0130919F018D81C1
:100F30009E81FC013183208310929F0110929E01BB
:100F4000789426960FB6F894DEBF0FBECDBFCF9132
:100F5000DF9108950F931F93DF93CF9300D000D0BC
:100F6000CDB7DEB79C838B83F8941A82198262C056
:100F70008091E8019091E90129813A814B815C815E
:100F8000240F351FF901208188559E4FFC012083D5
:100F90008091E8019091E901019620E430E0B901E7
:100FA0000E94750D9093E9018093E8018091A4015E
:100FB0009091A50101969093A5018093A40181ECE5
:100FC00090E0FC018081882F90E080749070009701
:100FD00061F586EC90E02091A6013091A70128559B
:100FE0003E4FF9012081FC0120838091A601909160
:100FF000A701019620E430E0B9010E94750D90939D
:10100000A7018093A6018091A4019091A501019769
:101010009093A5018093A40181EC90E021EC30E055
:10102000F90120812064FC01208389819A81019645
:101030009A83898309811A818B819C810E94060F82
:101040000817190740F48091A4019091A5018034FC
:1010500091050CF48DCF78940F900F900F900F9016
:10106000CF91DF911F910F910895EF92FF920F930F
:101070001F937B018C0120E030E040E05FE40E94A0
:10108000330B87FD11C0C801B70120E030E040E01C
:101090005FE40E94D8090E94930B9B01AC01205091
:1010A00030404040504806C0C801B7010E94930B31
:1010B0009B01AC01B901CA011F910F91FF90EF9004
:1010C0000895A0E0B0E0E7E6F8E00C94A00DFC0184
:1010D000EA018081823008F438C1DB019C919230B2
:1010E00008F430C1843059F4943009F02EC1918154
:1010F00011968C911197981709F021C126C194304F
:1011000009F420C19230B1F4823009F01EC1CA0145
:10111000AF0128E0DA010D90AD01DC010D92CD01A7
:101120002150C1F7DB0111968C9111979181892390
:1011300089830AC1823009F405C1C280D380DB01F2
:1011400012966D907C90139724813581468157814A
:101150001496ED90FD900D911C911797C60186197C
:1011600097095C0197FF04C0AA24BB24A81AB90AF6
:10117000B0E2AB16B1040CF061C0181619066CF59C
:10118000370148010A2C04C0969487947794679499
:101190000A94D2F781E090E0A0E0B0E00A2C04C00D
:1011A000880F991FAA1FBB1F0A94D2F70197A109A4
:1011B000B1098E219F21A023B123EE24FF248701B2
:1011C000E3940097A105B10519F4EE24FF248701EB
:1011D000E628F728082919293CC00097D1F1CA0C44
:1011E000DB1C39014A010A2C04C096948794779439
:1011F00067940A94D2F781E090E0A0E0B0E00A2C76
:1012000004C0880F991FAA1FBB1F0A94D2F7019729
:10121000A109B10982239323A423B52321E030E05F
:1012200040E050E00097A105B10519F420E030E05E
:10123000A90126293729482959290BC06C147D0496
:1012400024F4EE24FF24870104C0630120E030E091
:10125000A9018181FB019181891709F445C0882387
:1012600049F0D801C701821B930BA40BB50B9C015D
:10127000AD0104C02E193F09400B510B57FD04C0AE
:101280001982DB82CA820BC081E08983DB82CA8239
:1012900050954095309521953F4F4F4F5F4F2C8390
:1012A0003D834E835F830DC0880F991FAA1FBB1F0C
:1012B0008C839D83AE83BF838A819B8101979B83AF
:1012C0008A838C819D81AE81BF819C01AD012150BB
:1012D0003040404050402F3FEFEF3E07EFEF4E07CA
:1012E000EFE35E0708F30BC08983DB82CA822E0D11
:1012F0003F1D401F511F2C833D834E835F8383E03E
:1013000088832C813D814E815F8157FF1DC0DA01AA
:10131000C90181709070A070B0705695479537954F
:101320002795822B932BA42BB52B8C839D83AE8387
:10133000BF838A819B8101969B838A8305C0E6E0F7
:10134000F1E003C0FB0101C0FE01CF01CDB7DEB764
:10135000EEE00C94BC0DA0E2B0E0E1EBF9E00C94FF
:10136000A80D69837A838B839C832D833E834F836F
:10137000588789E0E82EF12CEC0EFD1ECE01019677
:10138000B7010E94B30C8E010F5E1F4FCE01059670
:10139000B8010E94B30CC701B801AE01475E5F4FB0
:1013A0000E9461080E94E50BA096E6E00C94C40D33
:1013B000A0E2B0E0EEEDF9E00C94A80D69837A8329
:1013C0008B839C832D833E834F8358878E01075FD9
:1013D0001F4FCE010196B8010E94B30C91E1E92E96
:1013E000F12CEC0EFD1ECE010596B7010E94B30C48
:1013F0008A8991E089278A8BC801B701AE01475ECF
:101400005F4F0E9461080E94E50BA096E6E00C94F5
:10141000C40DA0E2B0E0EFE0FAE00C949C0D69830B
:101420007A838B839C832D833E834F835887CE01A1
:101430000196BE01675F7F4F0E94B30CCE010596F7
:10144000BE016F5E7F4F0E94B30C9985923078F099
:1014500089898230C0F0943019F4823041F4CBC0D5
:10146000843019F4923079F4C6C0923051F481E09E
:101470002A859A89291709F480E08A87CE0109967E
:10148000BCC0823051F481E02A859A89291709F479
:1014900080E08A8BCE014196B0C06D847E848F84BB
:1014A0009888ED88FE880F89188DE0E2F0E080E0F2
:1014B00090E0DC01AA24BB24650120E030E0A90112
:1014C000B3016170707061157105D1F02E0D3F1D73
:1014D000401F511F15012601280E391E4A1E5B1E92
:1014E00081E090E0A0E0B0E02E153F0540075107F5
:1014F00018F080E090E0DC01820D931DA41DB51D65
:10150000AA0CBB1CCC1CDD1C17FF09C061E0262EF9
:10151000312C412C512CA228B328C428D52831972E
:1015200049F0EE0CFF1C001F111F969487947794CE
:101530006794C6CF6B897C89EB85FC856E0F7F1F16
:101540006E5F7F4F7C8F6B8F61E0EA857A89E7174A
:1015500009F460E06A8F6B8D7C8D10C0FC01E17036
:10156000F070309729F05695479537952795506834
:10157000B695A795979587956F5F7F4FB7FDEECF8F
:101580000CC0880F991FAA1FBB1F57FD8160220F37
:10159000331F441F551F615070408030E0E09E07AC
:1015A000E0E0AE07E0E4BE0760F36B8F7C8F6FE78F
:1015B000E62EF12C012D112DE822F9220A231B23FE
:1015C00060E4E616F1040105110561F487FD0AC027
:1015D000211531054105510529F0805C9F4FAF4F22
:1015E000BF4F80788D8F9E8FAF8FB8A383E0898F98
:1015F000CE01499602C086E091E00E94E50BA096DC
:10160000E2E10C94B80DA8E1B0E0E9E0FBE00C9455
:10161000A80D69837A838B839C832D833E834F83BC
:1016200058878E01075F1F4FCE010196B8010E94B7
:10163000B30C81E1E82EF12CEC0EFD1ECE010596D7
:10164000B7010E94B30C8985823040F089898230CD
:1016500028F0C801B7010E941C0D01C08FEF6896E9
:10166000E6E00C94C40DA8E1B0E0E9E3FBE00C94E3
:10167000A80D69837A838B839C832D833E834F835C
:1016800058878E01075F1F4FCE010196B8010E9457
:10169000B30C81E1E82EF12CEC0EFD1ECE01059677
:1016A000B7010E94B30C8985823040F0898982306D
:1016B00028F0C801B7010E941C0D01C08FEF689689
:1016C000E6E00C94C40DA8E1B0E0E9E6FBE00C9480
:1016D000A80D69837A838B839C832D833E834F83FC
:1016E00058878E01075F1F4FCE010196B8010E94F7
:1016F000B30C81E1E82EF12CEC0EFD1ECE01059617
:10170000B7010E94B30C8985823040F0898982300C
:1017100028F0C801B7010E941C0D01C081E0689645
:10172000E6E00C94C40DACE0B0E0E9E9FBE00C9419
:10173000AC0D69837A838B839C83CE010196BE01B5
:101740006B5F7F4F0E94B30C8D81823081F18230BC
:1017500070F1843021F48E81882369F10AC02F81D1
:10176000388537FD24C06E812F3131053CF066236A
:1017700011F120E030E040E050E821C08EE190E03F
:10178000821B930B29853A854B855C8504C0569551
:101790004795379527958A95D2F7662381F050951E
:1017A0004095309521953F4F4F4F5F4F08C020E047
:1017B00030E0A90104C02FEF3FEF4FEF5FE7B90121
:1017C000CA012C96E2E00C94C80DEF92FF920F93A1
:1017D0001F93CF93DF93FC0124813581468157818C
:1017E00061818081823020F44061EFEFF0E0A3C09E
:1017F000843009F49BC0823009F492C02115310570
:101800004105510509F48FC00280F381E02D8FEF6F
:10181000E238F8070CF05AC0C2E8DFEFCE1BDF0B4E
:10182000CA31D1056CF579018A010C2E04C01695D8
:101830000795F794E7940A94D2F781E090E0A0E04E
:10184000B0E00C2E04C0880F991FAA1FBB1F0A947A
:10185000D2F70197A109B10982239323A423B523C9
:1018600021E030E040E050E00097A105B10519F417
:1018700020E030E0A9012E293F29402B512B03C045
:1018800020E030E0A901DA01C9018F779070A070E3
:10189000B07080349105A105B10539F427FF09C066
:1018A000205C3F4F4F4F5F4F04C0215C3F4F4F4F75
:1018B0005F4FE1E0F0E0203080E0380780E048074B
:1018C00080E4580728F5E0E0F0E022C0E038F105B8
:1018D0006CF5E158FF4FDA01C9018F779070A07065
:1018E000B07080349105A105B10539F427FF09C016
:1018F000205C3F4F4F4F5F4F04C0215C3F4F4F4F25
:101900005F4F57FF05C056954795379527953196F8
:1019100087E056954795379527958A95D1F70BC05F
:10192000E0E0F0E005C0E0E0F0E005C0EFEFF0E05F
:1019300020E030E0A9018E2F879588278795942F86
:101940009F77679566276795E695E22EA92FA82BC6
:10195000FE2FF62B622F732F8A2F9F2FCDB7DEB766
:10196000E6E00C94C40DDC01FB012C9111963C9136
:10197000119712968C911297482F4F7750E0982F1D
:10198000991F9927991F13966C911397862F880F8B
:10199000892B90E0661F6627661F6183009739F5E3
:1019A000211531054105510511F482E029C082E875
:1019B0009FEF9383828367E0220F331F441F551FDD
:1019C0006A95D1F783E0808309C0220F331F441F3B
:1019D000551F82819381019793838283203080E019
:1019E000380780E0480780E4580778F320C08F3F2D
:1019F000910579F4211531054105510519F484E06B
:101A00008083089544FF03C081E0808310C010826A
:101A10000EC08F5790409383828383E0808387E05A
:101A2000220F331F441F551F8A95D1F7506424831A
:101A30003583468357830895FC01DB019081923002
:101A400008F449C08C91823008F445C0943051F4B8
:101A500061818430B1F511962C91119730E0261BED
:101A6000310941C0843021F0923041F48230B1F12B
:101A700011968C9111978823A1F12DC0618182303C
:101A800001F111968C9111976817D9F42281338155
:101A900012968D919C9113978217930794F02817B3
:101AA0003907BCF0248135814681578114968D9188
:101AB0009D910D90BC91A02D82179307A407B507A7
:101AC00018F4662341F00DC0281739074A075B0751
:101AD00028F4662331F021E030E005C020E030E05A
:101AE00002C02FEF3FEFC901089597FB092E07268B
:101AF0000AD077FD04D00CD006D000201AF47095DF
:101B000061957F4F0895F6F7909581959F4F0895C1
:101B1000AA1BBB1B51E107C0AA1FBB1FA617B70713
:101B200010F0A61BB70B881F991F5A95A9F780952F
:101B30009095BC01CD0108952F923F924F925F92F4
:101B40006F927F928F929F92AF92BF92CF92DF92CD
:101B5000EF92FF920F931F93CF93DF93CDB7DEB732
:101B6000CA1BDB0B0FB6F894DEBF0FBECDBF0994C6
:101B70002A88398848885F846E847D848C849B841D
:101B8000AA84B984C884DF80EE80FD800C811B812B
:101B9000AA81B981CE0FD11D0FB6F894DEBF0FBE5A
:101BA000CDBFED010895CF93DF938230910510F4FE
:101BB00082E090E0E091EC01F091ED0140E050E036
:101BC00020E030E026C06081718168177907E0F07D
:101BD0006817790781F4828193812115310531F0ED
:101BE000D90113969C938E9312972BC09093ED017D
:101BF0008093EC0126C04115510519F06417750753
:101C000018F4AB01E901DF019F0172816381E72FC5
:101C1000F62F3097C1F64115510501F1481B590BBC
:101C20004430510580F412968D919C911397209722
:101C300019F09B838A8304C09093ED018093EC019B
:101C4000FD01329646C0FD01E40FF51F819391938B
:101C50004250504011965C934E933BC02091EA0154
:101C60003091EB012115310541F4209110013091A3
:101C700011013093EB012093EA0120911201309180
:101C800013012115310541F42DB73EB740910E01E6
:101C900050910F01241B350BE091EA01F091EB010B
:101CA000E217F307A0F42E1B3F0B2817390778F033
:101CB000AC014E5F5F4F2417350748F04E0F5F1F92
:101CC0005093EB014093EA018193919302C0E0E0CD
:101CD000F0E0CF01DF91CF910895CF93DF9300978C
:101CE00009F491C0FC013297138212826091EC01D9
:101CF0007091ED016115710581F420813181280F0A
:101D0000391F8091EA019091EB018217930799F5B1
:101D1000F093EB01E093EA0176C0DB0180E090E014
:101D200002C0CD01D901AE17BF0748F412962D911C
:101D30003C91139721153105A1F7CD0121C0B38343
:101D4000A283EF01499159919E01240F351FA217DB
:101D5000B30779F42D913C911197240F351F2E5F15
:101D60003F4F3183208312962D913C9113973383FB
:101D70002283009729F4F093ED01E093EC0143C036
:101D8000DC011396FC93EE9312974D915D91A40F95
:101D9000B51FEA17FB0769F420813181240F351F35
:101DA0002E5F3F4FEC0139832883228133813B83AF
:101DB0002A83E0E0F0E002C0FB01BC01DB011296E7
:101DC0008D919C9113970097B9F79B012E5F3F4F20
:101DD0008D919C911197820F931F4091EA01509130
:101DE000EB014817590779F4309729F41092ED0167
:101DF0001092EC0102C013821282225030403093C4
:101E0000EB012093EA01DF91CF910895FC0101904D
:101E10000020E9F7809590958E0F9F1F0895F89404
:021E2000FFCFF2
:101E2200FFFFFFFFFFFF0000000000000000200096
:041E3200EE010000BD
:00000001FF
